{
  "_format": "hh-sol-artifact-1",
  "contractName": "Transactions",
  "sourceName": "contracts/Transactions.sol",
  "abi": [
    {
      "inputs": [
        {
          "internalType": "string",
          "name": "seller_name",
          "type": "string"
        },
        {
          "internalType": "string",
          "name": "seller_id",
          "type": "string"
        },
        {
          "internalType": "string",
          "name": "buyer_name",
          "type": "string"
        },
        {
          "internalType": "string",
          "name": "buyer_id",
          "type": "string"
        },
        {
          "internalType": "string",
          "name": "bill_id",
          "type": "string"
        },
        {
          "internalType": "string",
          "name": "purchase_date",
          "type": "string"
        },
        {
          "internalType": "string",
          "name": "price",
          "type": "string"
        }
      ],
      "name": "addToBlockchain",
      "outputs": [],
      "stateMutability": "nonpayable",
      "type": "function"
    },
    {
      "inputs": [],
      "name": "getAllTransactions",
      "outputs": [
        {
          "components": [
            {
              "internalType": "string",
              "name": "seller_name",
              "type": "string"
            },
            {
              "internalType": "string",
              "name": "seller_id",
              "type": "string"
            },
            {
              "internalType": "string",
              "name": "buyer_name",
              "type": "string"
            },
            {
              "internalType": "string",
              "name": "buyer_id",
              "type": "string"
            },
            {
              "internalType": "string",
              "name": "bill_id",
              "type": "string"
            },
            {
              "internalType": "string",
              "name": "purchase_date",
              "type": "string"
            },
            {
              "internalType": "string",
              "name": "price",
              "type": "string"
            }
          ],
          "internalType": "struct Transactions.TransferStruct[]",
          "name": "",
          "type": "tuple[]"
        }
      ],
      "stateMutability": "view",
      "type": "function"
    },
    {
      "inputs": [],
      "name": "getTransactionCount",
      "outputs": [
        {
          "internalType": "uint256",
          "name": "",
          "type": "uint256"
        }
      ],
      "stateMutability": "view",
      "type": "function"
    }
  ],
  "bytecode": "0x608060405234801561001057600080fd5b50610cd4806100206000396000f3fe608060405234801561001057600080fd5b50600436106100415760003560e01c80630a6db76b1461004657806327506f53146100625780632e7700f014610080575b600080fd5b610060600480360381019061005b919061075c565b61009e565b005b61006a6101eb565b6040516100779190610a39565b60405180910390f35b610088610648565b6040516100959190610a5b565b60405180910390f35b60016000808282546100b09190610b2c565b9250508190555060016040518060e001604052808981526020018881526020018781526020018681526020018581526020018481526020018381525090806001815401808255809150506001900390600052602060002090600702016000909190919091506000820151816000019080519060200190610131929190610651565b50602082015181600101908051906020019061014e929190610651565b50604082015181600201908051906020019061016b929190610651565b506060820151816003019080519060200190610188929190610651565b5060808201518160040190805190602001906101a5929190610651565b5060a08201518160050190805190602001906101c2929190610651565b5060c08201518160060190805190602001906101df929190610651565b50505050505050505050565b60606001805480602002602001604051908101604052809291908181526020016000905b8282101561063f57838290600052602060002090600702016040518060e001604052908160008201805461024290610bce565b80601f016020809104026020016040519081016040528092919081815260200182805461026e90610bce565b80156102bb5780601f10610290576101008083540402835291602001916102bb565b820191906000526020600020905b81548152906001019060200180831161029e57829003601f168201915b505050505081526020016001820180546102d490610bce565b80601f016020809104026020016040519081016040528092919081815260200182805461030090610bce565b801561034d5780601f106103225761010080835404028352916020019161034d565b820191906000526020600020905b81548152906001019060200180831161033057829003601f168201915b5050505050815260200160028201805461036690610bce565b80601f016020809104026020016040519081016040528092919081815260200182805461039290610bce565b80156103df5780601f106103b4576101008083540402835291602001916103df565b820191906000526020600020905b8154815290600101906020018083116103c257829003601f168201915b505050505081526020016003820180546103f890610bce565b80601f016020809104026020016040519081016040528092919081815260200182805461042490610bce565b80156104715780601f1061044657610100808354040283529160200191610471565b820191906000526020600020905b81548152906001019060200180831161045457829003601f168201915b5050505050815260200160048201805461048a90610bce565b80601f01602080910402602001604051908101604052809291908181526020018280546104b690610bce565b80156105035780601f106104d857610100808354040283529160200191610503565b820191906000526020600020905b8154815290600101906020018083116104e657829003601f168201915b5050505050815260200160058201805461051c90610bce565b80601f016020809104026020016040519081016040528092919081815260200182805461054890610bce565b80156105955780601f1061056a57610100808354040283529160200191610595565b820191906000526020600020905b81548152906001019060200180831161057857829003601f168201915b505050505081526020016006820180546105ae90610bce565b80601f01602080910402602001604051908101604052809291908181526020018280546105da90610bce565b80156106275780601f106105fc57610100808354040283529160200191610627565b820191906000526020600020905b81548152906001019060200180831161060a57829003601f168201915b5050505050815250508152602001906001019061020f565b50505050905090565b60008054905090565b82805461065d90610bce565b90600052602060002090601f01602090048101928261067f57600085556106c6565b82601f1061069857805160ff19168380011785556106c6565b828001600101855582156106c6579182015b828111156106c55782518255916020019190600101906106aa565b5b5090506106d391906106d7565b5090565b5b808211156106f05760008160009055506001016106d8565b5090565b600061070761070284610aa7565b610a76565b90508281526020810184848401111561071f57600080fd5b61072a848285610b8c565b509392505050565b600082601f83011261074357600080fd5b81356107538482602086016106f4565b91505092915050565b600080600080600080600060e0888a03121561077757600080fd5b600088013567ffffffffffffffff81111561079157600080fd5b61079d8a828b01610732565b975050602088013567ffffffffffffffff8111156107ba57600080fd5b6107c68a828b01610732565b965050604088013567ffffffffffffffff8111156107e357600080fd5b6107ef8a828b01610732565b955050606088013567ffffffffffffffff81111561080c57600080fd5b6108188a828b01610732565b945050608088013567ffffffffffffffff81111561083557600080fd5b6108418a828b01610732565b93505060a088013567ffffffffffffffff81111561085e57600080fd5b61086a8a828b01610732565b92505060c088013567ffffffffffffffff81111561088757600080fd5b6108938a828b01610732565b91505092959891949750929550565b60006108ae8383610964565b905092915050565b60006108c182610ae7565b6108cb8185610b0a565b9350836020820285016108dd85610ad7565b8060005b8581101561091957848403895281516108fa85826108a2565b945061090583610afd565b925060208a019950506001810190506108e1565b50829750879550505050505092915050565b600061093682610af2565b6109408185610b1b565b9350610950818560208601610b9b565b61095981610c8d565b840191505092915050565b600060e0830160008301518482036000860152610981828261092b565b9150506020830151848203602086015261099b828261092b565b915050604083015184820360408601526109b5828261092b565b915050606083015184820360608601526109cf828261092b565b915050608083015184820360808601526109e9828261092b565b91505060a083015184820360a0860152610a03828261092b565b91505060c083015184820360c0860152610a1d828261092b565b9150508091505092915050565b610a3381610b82565b82525050565b60006020820190508181036000830152610a5381846108b6565b905092915050565b6000602082019050610a706000830184610a2a565b92915050565b6000604051905081810181811067ffffffffffffffff82111715610a9d57610a9c610c5e565b5b8060405250919050565b600067ffffffffffffffff821115610ac257610ac1610c5e565b5b601f19601f8301169050602081019050919050565b6000819050602082019050919050565b600081519050919050565b600081519050919050565b6000602082019050919050565b600082825260208201905092915050565b600082825260208201905092915050565b6000610b3782610b82565b9150610b4283610b82565b9250827fffffffffffffffffffffffffffffffffffffffffffffffffffffffffffffffff03821115610b7757610b76610c00565b5b828201905092915050565b6000819050919050565b82818337600083830152505050565b60005b83811015610bb9578082015181840152602081019050610b9e565b83811115610bc8576000848401525b50505050565b60006002820490506001821680610be657607f821691505b60208210811415610bfa57610bf9610c2f565b5b50919050565b7f4e487b7100000000000000000000000000000000000000000000000000000000600052601160045260246000fd5b7f4e487b7100000000000000000000000000000000000000000000000000000000600052602260045260246000fd5b7f4e487b7100000000000000000000000000000000000000000000000000000000600052604160045260246000fd5b6000601f19601f830116905091905056fea2646970667358221220dac11094077242d182a7ae175bb6342683e7de1e8be198fe008db078c30193d764736f6c63430008000033",
  "linkReferences": {},
  "deployedLinkReferences": {}
}